:020000040800F2
:100000000000032021530008A9160008AB160008C1
:10001000AD160008AF160008B11600080000000079
:10002000000000000000000000000000B3160008FF
:10003000B516000800000000B7160008B916000841
:100040007553000875530008755300087553000870
:100050007553000875530008755300087553000860
:100060007553000875530008755300087553000850
:100070007553000875530008755300087553000840
:100080007553000875530008755300087553000830
:100090007553000875530008755300087553000820
:1000A0007553000875530008755300087553000810
:1000B0007553000875530008755300087553000800
:1000C00075530008755300087553000875530008F0
:1000D00075530008755300087553000875530008E0
:1000E00075530008755300087553000875530008D0
:1000F00075530008755300087553000875530008C0
:1001000075530008755300087553000875530008AF
:10011000755300087553000875530008755300089F
:10012000755300087553000875530008755300088F
:0C01300075530008755300087553000853
:10014000044B05481B1A062B02D9044B03B1184770
:10015000704700BF2700002024000020000000009E
:1001600005490648091A891001EBD171491002D0DE
:10017000034B03B1184770472400002024000020DF
:100180000000000010B5064C237843B9FFF7D8FFF4
:10019000044B13B10448AFF300800123237010BD5A
:1001A000A8010020000000007853000808B5084BA3
:1001B0001BB108490848AFF300800848036813B929
:1001C000BDE80840CCE7064B002BF9D09847F7E78D
:1001D00000000000AC01002078530008240000203B
:1001E0000000000070B50F4E0F4D761BB61018BF03
:1001F000002405D0013455F8043B9847A642F9D1B4
:100200000A4E0B4D761B05F0B7F8B61018BF002448
:1002100006D0013455F8043B9847A642F9D170BD89
:1002200070BD00BF18560008185600081C5600087C
:1002300018560008844641EA000313F003036DD109
:10024000403A41D351F8043B40F8043B51F8043B99
:1002500040F8043B51F8043B40F8043B51F8043BA0
:1002600040F8043B51F8043B40F8043B51F8043B90
:1002700040F8043B51F8043B40F8043B51F8043B80
:1002800040F8043B51F8043B40F8043B51F8043B70
:1002900040F8043B51F8043B40F8043B51F8043B60
:1002A00040F8043B51F8043B40F8043B51F8043B50
:1002B00040F8043B51F8043B40F8043B51F8043B40
:1002C00040F8043B403ABDD2303211D351F8043BE0
:1002D00040F8043B51F8043B40F8043B51F8043B20
:1002E00040F8043B51F8043B40F8043B103AEDD28F
:1002F0000C3205D351F8043B40F8043B043AF9D2E0
:10030000043208D0D2071CBF11F8013B00F8013BB2
:1003100001D30B8803806046704700BF082A13D3BF
:100320008B078DD010F003038AD0C3F10403D21AD7
:10033000DB071CBF11F8013B00F8013B80D331F80B
:10034000023B20F8023B7BE7043AD9D3013A11F88B
:10035000013B00F8013BF9D20B7803704B784370F6
:100360008B7883706046704770B4860746D0541E01
:10037000002A41D0CAB2034602E014F1FF343BD355
:1003800003F8012B9D07F8D1032C2ED9CDB245EAF5
:1003900005250F2C45EA054519D903F1100226461B
:1003A000103E0F2E42F8105C42F80C5C42F8085CDC
:1003B00042F8045C02F11002F2D8A4F1100222F01B
:1003C0000F0204F00F041032032C13440DD91E4603
:1003D0002246043A032A46F8045BFAD8221F22F088
:1003E00003020432134404F003042CB1C9B21C44C8
:1003F00003F8011B9C42FBD170BC704714460346B6
:10040000C2E700BF53B94AB9002908BF00281CBF82
:100410004FF0FF314FF0FF3000F07AB9ADF1080C2A
:100420006DE904CE00F006F8DDF804E0DDE9022312
:1004300004B070472DE9F0478C460D460446089EEF
:10044000002B51D18A4217466DD9B2FA82FEBEF115
:10045000000F0BD0CEF1200C01FA0EF520FA0CFCA7
:1004600002FA0EF74CEA050C00FA0EF44FEA174AAE
:10047000250CBCFBFAF81FFA87F90AFB18CC45EAF1
:100480000C4508FB09F3AB420AD9ED1908F1FF321C
:1004900080F02381AB4240F22081A8F102083D4464
:1004A000ED1AA4B2B5FBFAF00AFB105544EA054474
:1004B00000FB09F9A14509D9E41900F1FF3380F0E7
:1004C0000A81A14540F2078102383C44A4EB0904AB
:1004D00040EA08400021002E61D024FA0EF40023E7
:1004E00034607360BDE8F0878B4207D9002E54D08A
:1004F000002186E821000846BDE8F087B3FA83F1C1
:10050000002940F08E80AB4202D3824200F2FA8092
:10051000841A65EB03050120AC46002E3FD086E827
:100520001010BDE8F08712B90127B7FBF2F7B7FA50
:1005300087FEBEF1000F34D1EB1B3A0C1FFA87FC8B
:100540000121B3FBF2F8250C02FB183345EA034501
:100550000CFB08F3AB4207D9ED1908F1FF3002D2CA
:10056000AB4200F2D1808046ED1AA3B2B5FBF2F0A7
:1005700002FB105543EA05440CFB00FCA44507D9D7
:10058000E41900F1FF3302D2A44500F2B880184606
:10059000A4EB0C0440EA08409DE731463046BDE834
:1005A000F087CEF1200405FA0EF307FA0EF720FAD1
:1005B00004F83A0C25FA04F448EA0308B4FBF2F113
:1005C0004FEA184502FB11441FFA87FC45EA04452F
:1005D00001FB0CF3AB4200FA0EF409D9ED1901F15D
:1005E000FF3080F08A80AB4240F2878002393D4480
:1005F000EB1A1FFA88F5B3FBF2F002FB103345EA61
:10060000034500FB0CF3AB4207D9ED1900F1FF38AD
:100610006FD2AB426DD902383D44EB1A40EA01413A
:100620008FE7C1F1200722FA07F88B4005FA01F4A1
:1006300048EA030320FA07FE4FEA134CFD404EEA56
:10064000040EB5FBFCF94FEA1E440CFB19551FFACA
:1006500083F844EA054509FB08F4AC4202FA01F2CA
:1006600000FA01FA08D9ED1809F1FF3043D2AC4283
:1006700041D9A9F102091D442D1B1FFA8EFEB5FBBD
:10068000FCF00CFB10554EEA054400FB08F8A045B1
:1006900007D9E41800F1FF3529D2A04527D902383F
:1006A0001C4440EA0940A4EB0804A0FB02894C4525
:1006B000C6464D4615D312D056B1BAEB0E0364EBC5
:1006C000050404FA07F7CB401F43CC403760746041
:1006D0000021BDE8F0871846F8E69046E0E6C245FE
:1006E000EAD2B8EB020E69EB03050138E4E72846CD
:1006F000D7E7404691E78146BEE7014678E70238F2
:100700003C4445E7084608E7A8F102083D442BE7CA
:10071000704700BFF0B58BB0002405940694079491
:10072000089409944FF0B043DA6C42F00402DA64A2
:10073000DA6C02F004020492049ADA6C42F00202CB
:10074000DA64DA6C02F002020392039ADA6C42F085
:100750000102DA64DA6C02F001020292029ADA6CA7
:1007600042F00802DA64DB6C03F008030193019B9A
:10077000114F22462321384601F0FAF81023059341
:100780000E4E06960125079505A90D4801F028F89B
:100790002323059306950794089405A9384601F08C
:1007A0001FF8032305930696079505A9054801F050
:1007B00017F80BB0F0BD00BF000400480000221085
:1007C00000080048000C004838B5114C114B23605C
:1007D0004FF4E13363604FF08053A3600025E56080
:1007E00025610C236361A561E56125626562A562EF
:1007F000204603F022FA2946204603F0AAFA2946A9
:10080000204603F0CBFA204603F084FA38BD00BF3F
:10081000EC0200200038014008B50848084B03608E
:1008200008234360022383600361002343618361E3
:10083000C361036203F0D7FA08BD00BF9C03002028
:100840000068004008B50848084B03600023436077
:100850000F22826047F6FF72C26003618361C36149
:10086000436102F0E2FA08BD78030020002800404E
:10087000F0B5AFB0482200211CA8FFF775FD002499
:10088000159416941794189419941A941B94502242
:10089000214601A8FFF768FD4FF0B045EB6823F053
:1008A0007003EB60EB6823F0030343F00103EB609C
:1008B00002F082F9D5F8903023F01803C5F8903093
:1008C000284A136823F4C06343F400731360136869
:1008D00003F4C0630093009B2F231C934FF48033D9
:1008E0001D9301251E954FF480771F972395402374
:1008F00020932494602325930523219327941CA8F7
:1009000001F0C0F86F2315930226169617941894D9
:1009100019941A941B94294615A801F0C7FC43F6B4
:1009200001130193182302934FF4003303934FF004
:10093000007304934FF0005305934FF080730693B8
:1009400007944FF080630E9311974FF40043129376
:1009500013961023149301A801F09BFF02F024F9D1
:100960002FB0F0BD0004005808B502F0F9F9FFF708
:100970007FFFFFF7CFFEFFF727FFFFF74DFFFFF7E2
:1009800061FF00F043F8FEE7704708B54FF0B04252
:10099000936843F40043936004F082FB08BD0000B9
:1009A00010B588B003F074FB0F4A0021082004F052
:1009B000B1FB0E4C00940E4B019369460D4804F0B8
:1009C000E1FA04F58673029304F50673039304F5C4
:1009D0004974049440F23C53059302A803F0D2FBFF
:1009E00003F052FB08B010BDA94F0008C40103205A
:1009F00089090008F909000808B500F02BF800F093
:100A000015FD0021012004F055FB08BD08B5FFF7D6
:100A1000BCFF0349002000F029FAFFF7C1FF08BD21
:100A200078030020704708B54FF0FF3004F0C2FB98
:100A300008BD08B50021082004F07CFB08BD08B5FE
:100A4000022004F0A9FB08BD08B5022004F036FC22
:100A500008BD000030B589B001AC084D0FCD0FC402
:100A600095E8070003C424F8022B120C227003F04F
:100A7000B7FB01A803F0D3FB09B030BD90530008C9
:100A8000064A936A9BB2906A80B203E0034B9A6A6B
:100A9000034690B28342F9D1704700BF002800405E
:100AA00070B401EB4103DA000C4B13445B7DDBB205
:100AB000062B05D003EB4302D400084A22441075EC
:100AC000064A44002618F50015446B75297501EB9C
:100AD0004101CB001A44507570BC704724000020BF
:100AE000F0B4164B93F89030DBB28B421AD0134B14
:100AF0004A005518EC001C44247DE4B204EB440683
:100B0000F5001D44687545002F18FE0037461E4449
:100B100071753E461E4434751144CA00134418755D
:100B2000F0BC7047054B00EB4004E2001A445175DD
:100B300001EB4101CA0013441875F1E724000020BD
:100B400070B4244B93F89030DBB283422AD0214D0D
:100B500043000344DA002A44147D537DDBB2567D02
:100B6000F6B204EB4402D40025446E75062B0BD07C
:100B7000184A00EB4005EC001444247DE4B203EB7A
:100B80004303DD002A441475124A00EB4000C30001
:100B900013440120187392F89030DBB2062B10D06A
:100BA00070BC70470B4B93F89020D2B283F8912021
:100BB00000EB4004E2001A44527DD2B283F8902048
:100BC000E2E70029ECD14FF0FF32024BC3F894204A
:100BD000E6E700BF2400002008B5124BD3F894309C
:100BE000B3F1FF3F1BD0FFF74BFF0E4BD3F8943010
:100BF00098420CD80B4BD3F894301B1A0A4A107841
:100C000000FB03F0094B1B78D84080B208BD084BAD
:100C10001B88181A034BD3F894300344EEE70020E6
:100C2000F3E700BF24000020C4010020CA01002017
:100C3000C801002070B5344B93F89030DBB2062B1E
:100C400023D00446FFF7C8FF05462F4B620010195A
:100C5000C10019448868284488602244D10019449E
:100C6000886893F8902002EB4202D1000B449B6805
:100C700098423AD3244B93F89010C9B201EB410645
:100C8000F20013445B7DDBB220E01F4B93F8902011
:100C9000D2B283F8912083F8900000EB4000C200AC
:100CA0001A44062151754FF0FF32C3F894200025F5
:100CB00019E0154B01EB4101CA001A44517DC9B23C
:100CC00001EB4106F20013445B7DDBB2062B07D03B
:100CD00003EB4303DA000C4B13449B689842E8D2C1
:100CE0002046FFF7DDFE284670BD074E96F89010AF
:100CF0002046FFF7F5FE96F89030DBB286F891308B
:100D000086F89040EFE700BF2400002010B50028CF
:100D10002CD00446012832D9013CA4B21A4B1B68DE
:100D20001B68DA6812F0040FF8D0DA68D2B262F405
:100D30009062DA604FF40022144BDA60032001F075
:100D4000D7FF134A53691B0C1B041C435461FFF764
:100D500097FE104BC3F894000B4B1B681A689368FE
:100D600043F480639360AFF3008010BDFFF788FE0B
:100D7000084BC3F89400032001F0AAFF10BD064BF6
:100D80001B78012BC8D1C9E7CC010020000800580E
:100D90000028004024000020CA01002070B52F4B1D
:100DA0009B6813F4806F06D02D4B1B681B68DB68B3
:100DB00013F0040FF8D12A4B1B681A68936823F4C8
:100DC00080639360274B93F89040E4B204EB4401B6
:100DD000CA0013449E68FFF7FFFE0546864205D20F
:100DE0000122204B83F89820002024E01E4B1B8812
:100DF00010FA83F39E4207D91B4B188880B2002259
:100E0000184B83F8982016E0B6B2301A80B201224F
:100E1000144B83F898200EE062001444E100114A5C
:100E20000A449168491B916003EB4303DA000D4BC0
:100E300013445C7DE4B2062C0DD0234604EB44023F
:100E4000D100084A0A4492689542E5D9054A0A4405
:100E500000219160E8E7FFF759FF70BD00280040CE
:100E6000CC01002024000020C601002010B54A4B10
:100E700019600B68CA225A620B6853225A62474CA7
:100E8000A36843F02003A360A36803F00703C3F142
:100E90000403D9B2424B1970236903F4FE034FF4E3
:100EA000FE0292FAA2F2B2FA82F2D340DBB201332E
:100EB000DAB23C4B1A702369C3F30E0301333A4C88
:100EC0002380013B03FB02F3A3F5A073CB404FF655
:100ED000FE7293421AD94FF6FF72344B1A80344B8C
:100EE0001A6842F400221A60D3F8802042F40022EB
:100EF000C3F88020002844D12E4B012283F898208B
:100F00004FF0FF32C3F8942000230CE09BB2274A35
:100F10001380E4E703EB4302D100264A0A44002190
:100F200011730133DBB2052BF4D90622214B83F870
:100F30009020194C226811688B6823F480638B60C1
:100F40001268D368DBB263F49063D3604FF400227D
:100F5000174BDA60032001F0CBFE23681A68936810
:100F600043F4804393600C4B1B681B68FF225A625A
:100F700000220321084601F041FE032001F070FE2B
:100F800010BD054B1B681B68DB6813F4806FEAD04B
:100F9000032001F09DFEE6E7CC0100200028004080
:100FA000CA010020C4010020C8010020C6010020A1
:100FB0000008005824000020F0B5EFF3108772B647
:100FC000002401E00134E4B2052C07D804EB440509
:100FD000EE00114D35442D7B002DF3D1062C16D09B
:100FE000DFF834E0660006EB040C4FEACC057544EC
:100FF0004FF0010C85F80CC087F3108828616A73E4
:101000003219D0004EF800300C700020F0BD87F38C
:1010100010880120F0BD00BF2400002038B5044630
:10102000EFF3108572B6032001F028FE294B1B68F0
:101030001A68CA2151621B6853225A6204EB4403A6
:10104000DA00254B13441B7BDBB2022B0AD0214B69
:101050001B681B68FF225A62032001F001FE85F322
:10106000108838BD00212046FFF76AFD1A4B93F81F
:101070009030DBB2062B08D0174A92F89120D2B2FA
:101080009342E4D0FFF78AFEE1E7144B9B6813F428
:10109000806F06D00F4B1B681B68DB6813F0040FD2
:1010A000F8D10C4B19680A68936823F48063936045
:1010B0000B68DA6812F0040FFAD0DA68D2B262F480
:1010C0009062DA604FF40022054BDA60032001F0F1
:1010D0000FFEBCE7CC0100202400002000280040C7
:1010E00000080058F8B504460F4600EB4003DA004C
:1010F000214B13441B7BDBB2022B36D0EFF3108560
:1011000072B6032001F0BAFD1C4B1B681A68CA2195
:1011100051621B6853225A62174E62002244D30068
:10112000334402221A739F605F602046FFF782FDFE
:1011300096F89020D2B296F89130DBB29A4217D14D
:101140000D4A63001E19F1000E4611448968081A01
:1011500032449060094B1B681B68FF225A620320CF
:1011600001F07EFD85F31088F8BDFFF757FFC5E756
:10117000FFF714FEEEE700BF24000020CC010020A2
:10118000704708B50021012003F0D4FF08BD00001E
:1011900008B5064B93F89030052B05D003F01CF9E9
:1011A0000022024B83F8902008BD00BFC000002041
:1011B00000B583B0054B0093054B01936946054884
:1011C00003F0D0FD03B05DF804FB00BF2400032052
:1011D000F3110008D911000810B504464068083022
:1011E00003F0CEF810B90023237010BD0123237043
:1011F00010BD08B510B1012804D008BD072003F0C8
:10120000B1FF08BD072003F0BBFF08BD08B50F4BB9
:101210001B68B3F1FF3F11D00D4A12680D480370EF
:10122000C3F307214170C3F307438370C270C2F355
:1012300007230371C2F30742427108BD002002F088
:10124000FDFF00B108BD044808BD00BF8075FF1F49
:101250008475FF1FD00100205055000870B58CB078
:101260000024ADF81C4003F0ACFBFFF7CFFF0546B0
:1012700002460621204603F024FB6A793D4B1A7290
:101280002A795A72EA789A72AA78DA726A781A73A4
:101290002A785A734EF66E530993374B1B680CAA83
:1012A00042F8103D06212E2003F00BFB334A10219B
:1012B000182003F006FB324A1021082003F001FB3E
:1012C0001821012003F02DFB03F0F2F90DF12A03A0
:1012D00001930BAB00930DF12E0307222146012051
:1012E00003F05AF9BDF82C10BDF82E00254B0093E1
:1012F0000723224603F0B0FABDF82A10BDF82E00ED
:1013000007AB00930223224603F0A6FA02221146FD
:10131000204603F0A8FB1C4D01262E70304603F03A
:10132000D5F86E70EC7008236B751023AB752C75B7
:10133000164BAB61AC70224604E0134B13441A7198
:101340000132D2B20F2AF8D9002004900F4B039338
:1013500002901023019308230093034601221146B3
:1013600003F0DAF8084B9B780BB90CB070BD03F0B2
:101370007EF9FAE7040000208075FF1F3855000849
:101380002855000848550008C000002007B2010099
:1013900070B588B00446012828D04FF47A664FF41F
:1013A000C8651E4B93F89100FFF738FE022C23D03E
:1013B0001A4B83F8904093F828200020069005905F
:1013C000293304930392164B029308230193009050
:1013D00003463246294603F020F812490E2003F056
:1013E00019F908B9012C11D008B070BD0B4BB3F836
:1013F0009450B3F89660D4E7084B93F89030013BD3
:10140000DBB2012BD4D802F0E7FFD1E70649034B4A
:1014100093F89100FFF766FEE6E700BFC0000020EA
:10142000585500080400002046E0010030B58DB09A
:101430006C46244D0FCD0FC40FCD0FC495E80F009F
:1014400007C42370FFF7B4FE0121022003F032FE2F
:101450001D4A0021042003F05DFE684602F0D0FE24
:10146000FFF7FCFE02F076FF184C002584F8905040
:101470004FF6FF73E384164A2946012003F04AFE23
:10148000062003F077FA00F08BF8124B2A4604F19D
:1014900091012846FFF790FD0F4B2A4604F1920177
:1014A0002846FFF789FD84F8295084F828508023C6
:1014B000A4F89430A023A4F896300120FFF768FF29
:1014C0000DB030BDAC530008894D0008C0000020AD
:1014D00091110008831100088111000830B583B014
:1014E00004464378052B04D03E2B19D0012003B0CD
:1014F00030BD82881F4BDB8C9A420BD00120FFF756
:1015000047FF1D48012303701A4BDB8C438000F01A
:1015100046F8EBE7174B0022DA8483F89020EDE7DA
:10152000C378012B0AD00C2BE0D10DF106020DF18E
:101530000701104BD88C03F064FAD7E70D4D95F8EE
:101540009100FFF76BFD95F89030042B0ED005222B
:10155000084B83F89020B4F80530064AD384064837
:1015600000220270438000F01AF8BFE7062285F8D7
:101570009020F0E7C00000201006002008B50021F0
:10158000042003F0D7FD08BD08B5012003F004FED8
:1015900008BD08B5012003F091FE08BD70477047F3
:1015A00070470000094BD3F8D42042F40072C3F80E
:1015B000D4201A6A42F400721A6240BF20BF044A63
:1015C000D36843F40043D360704700BF000800585D
:1015D0000004005800B583B04FF0B0431A6D42F4D8
:1015E00080121A651B6D03F480130193019B094B54
:1015F0001A6842F001021A601A6842F480321A60D6
:101600002C2001F02DFB2D2001F02AFB03B05DF80A
:1016100004FB00BF000C0058024A536823F001038A
:1016200053607047000C00584FF48032014B9A60B1
:10163000704700BF000C0058024A536823F00203B1
:1016400053607047000C0058044B4FF400329A600E
:101650005A6822F400325A60704700BF000C0058EC
:1016600008B50B4BDB6813F0080F09D001234BB111
:10167000084B1860064A536823F40023536008BDE2
:101680000023F4E780474FF40022014B9A6008BD25
:10169000000C0058D8010020024A536823F00803C8
:1016A00053607047000C00587047FEE7FEE7FEE706
:1016B000FEE770477047704708B501F067FB08BD4B
:1016C00082B04FF0B0431A6D42F400221A651B6DD0
:1016D00003F400230193019B02B0704702680C4B96
:1016E0009A4200D0704782B04FF0B043D3F89020B8
:1016F00042F40042C3F890209A6D42F480629A65E9
:101700009B6D03F480630193019B02B0EAE700BF85
:101710000028004000B589B000230393049305938B
:10172000069307930268134B9A4202D009B05DF802
:1017300004FB4FF0B0431A6E42F480421A661A6EF0
:1017400002F480420292029ADA6C42F00202DA64F7
:10175000DB6C03F002030193019BC023039302237C
:101760000493012305930723079303A9024800F07C
:1017700037F8DBE7003801400004004810B588B0B6
:101780000023039304930593069307930268134B76
:101790009A4201D008B010BD4FF0B044E36C43F062
:1017A0000103E364E36C03F001030293029B4FF433
:1017B000C0530393022304930A23079303A94FF012
:1017C000904000F00DF8A36D43F08063A365A36D16
:1017D00003F080630193019BDCE700BF00680040D9
:1017E000F0B5002388E085684FEA430E032707FA27
:1017F0000EF725EA0705CE6806FA0EF63543856032
:10180000456825EA04044D68C5F300159D402C4346
:101810004460C6685F000324BC40E44326408D68F2
:10182000BD402E43C6604D68022D79D0122D77D071
:1018300005682C404D6805F00305BD402C4304604D
:101840004C6814F0805F56D09D08AE1C454C54F88F
:10185000264003F00306B6000F27B74024EA07042A
:10186000B0F1904F74D0404FB84273D007F5806705
:10187000B84271D007F58067B8426FD007F580672E
:10188000B84263D0072707FA06F634430235354ECF
:1018900046F82540354CD4F88050D44305EA040678
:1018A0004F6817F4803F01D042EA05062F4DC5F876
:1018B0008060D5F8845004EA05064F6817F4003FAD
:1018C00001D042EA0506294DC5F884602D6804EA76
:1018D00005064F6817F4801F01D042EA0506234D24
:1018E0002E606D682C404E6816F4001F01D042EA4D
:1018F00005041E4A546001330A6832FA03F42FD0FB
:1019000001249C402240F6D04D686E1E012E7FF6C9
:101910006AAF112D3FF467AF122D7FF47AAF62E703
:101920004FEAD30E0EF1080E50F82E5003F0070CBC
:101930004FEA8C0C0F2606FA0CF625EA06050E690E
:1019400006FA0CF6354340F82E5071E704279AE763
:10195000002798E7012796E7022794E7032792E7F5
:10196000F0BD00BF0000014000040048000800581E
:101970000AB981627047816170470000F0B58DB08F
:1019800006460F462A4C94E80F000CAD05E90F00FF
:1019900005AB04F1100207CA83E8070001AD1C344F
:1019A00094E80F0085E80F00B7F5007F11D0002301
:1019B000022B22D80CAA02EB830252F81C2C96426E
:1019C00015D90133F4E70CAA02EB830353F82C4C2E
:1019D00014E00023032B08D80CAA02EB830252F870
:1019E000102CB242EFD20133F4E7002406E00CAA37
:1019F00002EB830353F82C4C00E000240D4A1368DB
:101A000023F007032343136001F0CCF90546094B8B
:101A10001B6803F007039C4206D001F0C3F9401B8A
:101A20000228F4D9032000E000200DB0F0BD00BF73
:101A3000DC5300080040005810B5B02819D8C0F396
:101A400003100D4B53F820404FF0B043D3F808314A
:101A500003F00F03094A52F82330B4FBF3F401F00A
:101A6000B3F8074BA3FB04340146A00CFFF786FF35
:101A700010BD014BDC6AE7E7C0550008605500085F
:101A800083DE1B43002800F0EA8370B50446036838
:101A900013F0200F00F086804FF0B0429368D268B8
:101AA00002F0030213F00C0311D00C2B0DD0E569EA
:101AB000002D00F09F804FF0B042136843F0010307
:101AC000136001F06FF9054655E0012AEFD14FF0A0
:101AD000B0431B6813F0020F2ED001231BB1E36942
:101AE000002B00F0BE83606A4FF0B0431B6803F028
:101AF000F003B02B00D9B02398421FD9FFF79CFF09
:101B0000002840F0B083636A4FF0B042116821F0C2
:101B1000F0010B431360216A536823F47F4343EAC7
:101B20000123536002F034FAB54B186801F0F0F865
:101B3000002837D0012070BD0023CFE74FF0B0421E
:101B4000136823F0F00318431060216A536823F4EC
:101B50007F4343EA01235360606AFFF76DFF00286B
:101B6000E0D0012070BD01236BB901F01BF9401BCF
:101B7000022800F27A834FF0B0431B6813F0020F83
:101B8000F1D10023F0E7636A4FF0B042116821F011
:101B9000F0010B431360216A536823F47F4343EA47
:101BA00001235360236813F0010F4CD04FF0B04273
:101BB000936803F00C03D26802F00302082B36D0BE
:101BC0000C2B32D06368B3F5803F5DD0B3F5A02F06
:101BD00061D04FF0B0431A6822F480321A601A685C
:101BE00022F480221A606568002D70D001F0DAF8C6
:101BF000054664E04FF0B042136823F00103136020
:101C000001F0D0F806464FF0B0431B6813F0020F06
:101C100009D00123002BC5D001F0C4F8801B022895
:101C2000F1D9032070BD2B46F4E7032ACAD14FF047
:101C3000B0431B6813F4003F24D001231BB1636839
:101C4000002B00F01483236813F0020F00F087804C
:101C50004FF0B042936803F00C03D26802F0030225
:101C6000042B4BD00C2B47D0E568002D00F09A8058
:101C70004FF0B042136843F48073136001F092F8A0
:101C800005465BE00023D9E74FF0B042136843F408
:101C900080331360A7E74FF0B0431A6842F4802204
:101CA0001A601A6842F480321A609CE70123002B04
:101CB000C9D101F077F8401B642800F2DA824FF0B6
:101CC000B0431B6813F4003FF0D10023EFE701F0AD
:101CD00069F806464FF0B0431B6813F4003F09D083
:101CE0000123002BAFD001F05DF8801B6428F1D9EF
:101CF000032070BD2B46F4E7022AB5D14FF0B04364
:101D00001B6813F4806F0FD001231BB1E368002B15
:101D100000F0B18221694FF0B042536823F0FE43D6
:101D200043EA016353601AE00023EEE701236BB935
:101D300001F038F8401B022800F29F824FF0B043B8
:101D40001B6813F4806FF1D10023F0E721694FF095
:101D5000B042536823F0FE4343EA016353602368B3
:101D600013F0180F00F004816569002D00F0C680A3
:101D700013F0100F00F08A804FF0B043D3F8943086
:101D800013F0020F29D00123002B3BD14FF0B042BA
:101D9000D2F8943043F00103C2F8943001F002F815
:101DA000054624E04FF0B042136823F480731360BB
:101DB00000F0F8FF06464FF0B0431B6813F4806F45
:101DC00009D00123002BCAD000F0ECFF801B0228B1
:101DD000F1D9032070BD2B46F4E70023D4E701239B
:101DE00083B900F0DFFF401B022800F24D824FF064
:101DF000B043D3F8943013F0020FF0D10023EFE793
:101E0000140000204FF0B042D2F8943043F00403A5
:101E1000C2F8943000F0C6FF054607E0012373B90D
:101E200000F0C0FF401B032800F230824FF0B043A7
:101E3000D3F8943013F0080FF0D10023EFE7A16935
:101E40004FF0B042D2F8943023F4706343EA012398
:101E5000C2F89430D2F8943023F00103C2F89430E1
:101E600000F0A0FF05464FF0B043D3F8943013F0D4
:101E7000020F09D00123002B7AD000F093FF401B02
:101E80000228F0D9032070BD0023F4E74FF0B042E0
:101E9000D2F8943043F00103C2F8943000F082FF8E
:101EA000054607E0012373B900F07CFF401B0228C0
:101EB00000F2EE814FF0B043D3F8943013F0020FEC
:101EC000F0D10023EFE74FF0B042D2F8943023F086
:101ED0000403C2F894304FF0B043D3F8943013F0B9
:101EE000080F09D00123002B42D000F05BFF401BFC
:101EF0000328F0D9032070BD0023F4E74FF0B0426F
:101F0000D2F8943023F00403C2F8943000F04AFF72
:101F100006464FF0B043D3F8943013F0080F08D0C2
:101F2000012343B100F03EFF801B0328F1D90320B9
:101F300070BD2B46F5E74FF0B042D2F8943023F055
:101F40000103C2F8943000F02DFF06464FF0B04375
:101F5000D3F8943013F0020F08D0012343B100F0FE
:101F600021FF801B0228F1D9032070BD2B46F5E725
:101F7000236813F0040F71D0C14B1B6813F4807FEA
:101F800019D0A368012B27D0052B2ED04FF0B043DA
:101F9000D3F8902022F00102C3F89020D3F89020CB
:101FA00022F00402C3F89020A568002D3FD000F075
:101FB000F9FE054632E000F0FFFD00F0F3FE0546B5
:101FC000AF4B1B6813F4807FDBD100F0EBFE401BAE
:101FD0000228F5D9032070BD4FF0B042D2F89030FE
:101FE00043F00103C2F89030DEE74FF0B043D3F87E
:101FF000902042F00402C3F89020D3F8902042F0E1
:102000000102C3F89020CFE701233BBB00F0CAFEDA
:10201000401B41F28833984200F23C814FF0B043BC
:10202000D3F8903013F0020FEED10023EDE700F06B
:10203000B9FE06464FF0B043D3F8903013F0020FCC
:102040000AD0012353B100F0ADFE801B41F288336A
:102050009842EFD9032070BD2B46F3E7236813F0B5
:10206000400F3BD0A56AE5B14FF0B042D2F89830AE
:1020700043F00103C2F8983000F094FE054607E0F3
:1020800001235BBB00F08EFE401B022800F204819E
:102090004FF0B043D3F8983013F0020FF0D1002383
:1020A000EFE74FF0B042D2F8983023F00103C2F8C6
:1020B000983000F077FE06464FF0B043D3F89830E2
:1020C00013F0020F08D0012343B100F06BFE801B18
:1020D0000228F1D9032070BD2B46F5E7E36A002BF7
:1020E00000F0DC804FF0B0418A6802F00C02C96851
:1020F000022B23D00C2A00F0D7804FF0B0431A688F
:1021000022F080721A60DA6822F00302DA60DA687C
:1021100022F0885222F48032DA6000F043FE044656
:102120004FF0B0431B6813F0007F00F0968000F082
:1021300039FE001B0228F3D9032070BD01F0030310
:10214000206B83420AD00C2A00F0AA804FF0B043E3
:102150001B6813F0806F36D0012070BD01F0700352
:10216000606B8342EFD1C1F30623A06B8342EAD1B7
:1021700001F47813E06B8342E5D101F06063206CD9
:102180008342E0D101F06041636C9942DBD14FF0B2
:10219000B0431B6813F0007F40F084804FF0B043E1
:1021A0001A6842F080721A60DA6842F08052DA608F
:1021B00000F0F8FD04464FF0B0431B6813F0007FB9
:1021C00044D0002070BD4FF0B042136823F08073FC
:1021D000136000F0E7FD05464FF0B0431B6813F0B5
:1021E000007F06D000F0DEFD401B0228F4D903205A
:1021F00070BD4FF0B042D36822491940236B606B29
:102200000343A06B43EA0023E06B0343206C0343CA
:10221000606C03430B43D360136843F08073136017
:10222000D36843F08053D36000F0BCFD04464FF008
:10223000B0431B6813F0007F06D100F0B3FD001B14
:102240000228F4D9032070BD002070BD00F0AAFD63
:10225000001B0228AFD9032070BD002070BD0120F3
:102260007047012070BD012070BD032070BD0120AA
:1022700070BD032070BD012070BD032070BD00BF84
:10228000000400588C80C111032070BD032070BD74
:10229000032070BD032070BD032070BD002070BD01
:1022A000012070BD002070BD012070BD002800F02D
:1022B000528170B505460C46AE4B1B6803F0070310
:1022C0008B4231D32B6813F0020F43D12B6813F0EC
:1022D000200F5CD12B6813F0400F78D12B6813F0DE
:1022E000040F40F096802B6813F0080F40F0AF8089
:1022F0002B6813F0010F00F00B816B68022B00F0CC
:10230000C480032B00F0E880002B40F0F4804FF0F5
:10231000B042126812F0020F00F0EB800122002A96
:1023200040F0BC80012070BD924A136823F007037F
:102330000B43136000F036FD06468E4B1B6803F01E
:1023400007039C42BED000F02DFD801B0228F4D96B
:10235000032070BDAB684FF0B0418A6822F0F002F4
:1023600013438B6000F01EFD064608E00123002B9E
:10237000ACD100F017FD801B022800F2EE804FF078
:10238000B0439B6813F4803FF0D10023EFE76B6903
:102390004FF0B041D1F8082122F0F0021343C1F808
:1023A000083100F0FFFC064608E00123002B91D124
:1023B00000F0F8FC801B022800F2D1804FF0B043FF
:1023C000D3F8083113F4003FEFD10023EEE7A969F9
:1023D0004FF0B042D2F8083123F00F0343EA111353
:1023E000C2F8083100F0DEFC064609E00123002BAC
:1023F0007FF474AF00F0D6FC801B022800F2B1809D
:102400004FF0B043D3F8083113F4803FEED10023EE
:10241000EDE7EB684FF0B0418A6822F4E0621343C5
:102420008B6000F0BFFC064609E00123002B7FF41F
:102430005AAF00F0B7FC801B022800F294804FF0E6
:10244000B0439B6813F4003FEFD10023EEE7296906
:102450004FF0B042936823F4605343EAC1039360A2
:1024600000F0A0FC064608E00123002B7FF440AFFB
:1024700000F098FC801B022877D84FF0B0439B688F
:1024800013F4802FF0D10023EFE74FF0B042126831
:1024900012F4003F1ED00122002A68D04FF0B04154
:1024A0008A6822F0030213438B6000F07BFC06462F
:1024B0004FF0B0439B6803F00C036A68B3EB820FE4
:1024C00026D000F06FFC801B41F288339842EFD990
:1024D000032070BD0022DFE74FF0B042126812F017
:1024E000007F04D00122002AD8D1012070BD002233
:1024F000F9E71A4613E74FF0B042126812F4806F02
:1025000004D00122002AC9D1012070BD0022F9E7C0
:10251000184B1B6803F007039C4215D2154A136839
:1025200023F007032343136000F03CFC0546114BE6
:102530001B6803F007039C4206D000F033FC401BED
:102540000228F4D9032070BD01F022FD00F030FC18
:1025500000F0DEFB70BD01207047032070BD03203A
:1025600070BD032070BD032070BD032070BD01202D
:1025700070BD00BF004000584FF0B0439B6813F09F
:102580000C030CD14FF0B0431B6803F0F003B02BE9
:1025900000D9B0231B09284A52F823007047042BA6
:1025A00047D0082B12D04FF0B043DB6803F0030391
:1025B000022B2AD0032B1BD14FF0B0431B6813F41E
:1025C000801F11D001238BB91C4B1FE04FF0B0438B
:1025D0001B6813F4801F03D001231BB917487047F1
:1025E0000023FAE7164870470023ECE7144B0DE090
:1025F0004FF0B0431B6803F0F003B02B00D9B023B9
:102600001B090D4A52F8233000E00D4B4FF0B04249
:10261000D068C0F3062000FB03F0D368C3F30213B5
:102620000133B0FBF3F0D3685B0F0133B0FBF3F081
:1026300070470348704700BFC05500080048E801D4
:102640000024F40008B5FFF797FF4FF0B0439B68F4
:10265000C3F30313024A52F82330B0FBF3F008BD72
:102660006055000808B5FFF7EDFF4FF0B0439B68D9
:10267000C3F30223034A52F8233003F01F03D84068
:1026800008BD00BFA055000808B5FFF7DBFF4FF0FD
:10269000B0439B68C3F3C223034A52F8233003F0CC
:1026A0001F03D84008BD00BFA055000870B5044600
:1026B0004FF0B042136823F08063136000F072FBA8
:1026C000054606E0002363B100F06CFB401B0228C6
:1026D00009D84FF0B0431B6813F0006FF2D001230C
:1026E000F1E7002600E003260EB1304670BD4FF042
:1026F000B0431A6922F4FE42216842EA01221A61BB
:102700001A6922F4781261680A431A611A6842F061
:1027100080621A6000F046FB054606E001236BB9B3
:1027200000F040FB401B022807D84FF0B0431B6865
:1027300013F0006FF2D10023F1E70326002ED4D16D
:102740004FF0B042136921690B431361CDE770B5B7
:1027500004464FF0B042136823F08063136000F02A
:1027600021FB054606E0002363B100F01BFB401B84
:10277000022809D84FF0B0431B6813F0006FF2D065
:102780000123F1E7002600E003260EB1304670BDBC
:102790004FF0B0431A6922F4FE42216842EA012256
:1027A0001A611A6922F06062A1680A431A611A6804
:1027B00042F080621A6000F0F5FA054606E0012357
:1027C0006BB900F0EFFA401B022807D84FF0B04376
:1027D0001B6813F0006FF2D10023F1E70326002EEF
:1027E000D4D14FF0B042136921690B431361CDE797
:1027F00070B504464FF0B042136823F08063136055
:1028000000F0D0FA054606E0002363B100F0CAFAF2
:10281000401B022809D84FF0B0431B6813F0006F2B
:10282000F2D00123F1E7002600E003260EB1304686
:1028300070BD4FF0B0431A6922F4FE42216842EAAB
:1028400001221A611A6922F06042E1680A431A61A2
:102850001A6842F080621A6000F0A4FA054606E0A9
:1028600001236BB900F09EFA401B022807D84FF0F5
:10287000B0431B6813F0006FF2D10023F1E7032689
:10288000002ED4D14FF0B042136921690B4313617C
:10289000CDE770B50446036813F0400F28D0036BF2
:1028A000B3F5800F1AD005D803BB0430FFF7FEFE46
:1028B000064606E0B3F5000F02D0B3F5400F15D180
:1028C00000269EBB236B4FF0B041D1F8882022F444
:1028D00040021343C1F8883035460BE04FF0B04258
:1028E000D36843F48033D3600026EAE70126E8E7A3
:1028F00000252E46236813F4006F54D04FF0B043E8
:10290000D3F8905005F44075236CAB424AD000F0E8
:1029100053F96DB9236C4FF0B041D1F8902022F4F7
:1029200040721343C1F8903035463CE03546E1E74C
:102930004FF0B043D3F89020D3F8901041F4803199
:10294000C3F89010D3F8901021F48031C3F89010A0
:1029500022F44072216C0A43C3F89020D3F89030DF
:1029600013F0010F03D001231BB935461BE00023F0
:10297000FAE700F017FA054609E0012383B900F0F1
:1029800011FA401B41F28833984200F2DA804FF08E
:10299000B043D3F8903013F0020FEED10023EDE7EF
:1029A000354600E03546236813F0010F09D0A369CE
:1029B0004FF0B041D1F8882022F003021343C1F850
:1029C0008830236813F0020F09D0E3694FF0B0415B
:1029D000D1F8882022F440621343C1F8883023687C
:1029E00013F0100F0CD0A06A4FF0B041D1F888302E
:1029F000020C120423EA020343EA0043C1F88830C0
:102A0000236813F0200F0CD0E06A4FF0B041D1F8EA
:102A10008830020C120423EA020343EA0043C1F89F
:102A20008830236813F0040F0FD0236A4FF0B040B2
:102A3000D0F88820190901F47F2122EA01021B0144
:102A400003F47F231343C0F88830236813F0080F82
:102A50000FD0636A4FF0B040D0F88820190901F414
:102A60007F2122EA01021B0103F47F231343C0F8F4
:102A70008830236813F4807F11D0636B4FF0B0412E
:102A8000D1F8882022F040621343C1F88830636B8C
:102A9000B3F1006F57D0636BB3F1806F58D02368E8
:102AA00013F4007F15D0A36BB3F1804F04D0B3F1C2
:102AB000004F01D0002B52D14FF0B041D1F8882007
:102AC00022F040421343C1F88830A36BB3F1C05FDA
:102AD00057D0236813F4806F11D0E36B4FF0B041EF
:102AE000D1F8882022F040521343C1F88830E36BBC
:102AF000B3F1005F4CD0E36BB3F1805F4DD023683E
:102B000013F4805F09D0636C4FF0B041D1F894208A
:102B100022F440421343C1F89430236813F4005F59
:102B20000DD0E26C4FF0B043596A21F030010A43F6
:102B30005A62A26C596A21F003010A435A6228467C
:102B400070BD03252FE7CB6843F08073CB60A2E70D
:102B5000201DFFF7FCFD0028A1D005469FE723F0CC
:102B600080534FF0B042D2F8881021F04041C2F8B3
:102B70008810D2F8881021F040610B43C2F88830E9
:102B8000A3E74FF0B042D36843F08073D360A0E76F
:102B9000CB6843F48033CB60ADE7201DFFF728FE00
:102BA0000028ACD00546AAE74FF0B042136843F0C6
:102BB0000403136070470000024A136843F48073F3
:102BC0001360704700040058024B186800F4C0609E
:102BD000704700BF00040058074AD36823F4E0633D
:102BE0001B041B0C000200F4E060184340F0BF60BF
:102BF00040F40030D060704700ED00E030B4164B78
:102C0000DB68C3F30223C3F10704042C28BF0424A8
:102C10001D1D062D17D9033B012505FA04F4013CBF
:102C20002140994005FA03F3013B13401943002862
:102C30000BDB0901C9B200F1604000F5614080F88A
:102C4000001330BC70470023E6E700F00F000901D5
:102C5000C9B2024B1954F4E700ED00E014ED00E0B6
:102C6000002808DB420900F01F00012303FA00F0EE
:102C7000014B43F82200704700E100E000280DDB23
:102C8000430900F01F00012202FA00F02033044A39
:102C900042F82300BFF34F8FBFF36F8F704700BF21
:102CA00000E100E00138B0F1807F0AD2064B5860A5
:102CB000F021064A82F823100020986007221A604B
:102CC00070470120704700BF10E000E000ED00E019
:102CD000002809DB430900F01F00012202FA00F07E
:102CE0004033024A42F82300704700BF00E100E091
:102CF000002809DB430900F01F00012202FA00F05E
:102D00006033024A42F82300704700BF00E100E050
:102D1000114B1B780BB90120704710B50446FFF723
:102D200091FC0D4B1A784FF47A73B3FBF2F3B0FBBE
:102D3000F3F0FFF7B7FF68B90F2C01D9012010BDE0
:102D4000002221464FF0FF30FFF758FF034B1C6075
:102D5000002010BD012010BD120000201400002032
:102D600010B5094A136843F4807313600320FFF71A
:102D700033FF0020FFF7CCFF10B10124204610BD27
:102D80000446FEF79DFCF9E700400058034B1B7812
:102D9000034A11680B441360704700BF1200002003
:102DA00014060020014B1868704700BF140600206D
:102DB000014B1868704700BF1400002038B5044666
:102DC0000268D36823F0A003D360FFF7EBFF05464A
:102DD0002368DB6813F0200F07D1FFF7E3FF401BE8
:102DE000B0F57A7FF4D9032038BD002038BD38B55E
:102DF0000368DA6812F0400F01D0002038BD0446A5
:102E00004FF0FF32DA60FFF7CDFF05462368DB683D
:102E100013F0400F07D1FFF7C5FF401BB0F57A7FD5
:102E2000F4D9032038BD002038BD38B5002867D05C
:102E3000044690F82130002B45D0022384F821303D
:102E40002368CA225A62236853225A622046FFF737
:102E5000CEFF054600283BD12268936823F4E003A7
:102E600023F04003936021688A6863682069034304
:102E7000A069034313438B602368E2681A612268E8
:102E80001369A16843EA014313612268D36823F000
:102E90008003D3602268D36C23F00303D3642168DA
:102EA000CB6CE269606902431343CB6423689B687F
:102EB00013F0200F14D02368FF225A62012384F8F4
:102EC0002130284638BD80F82030FEF707FCB4E7F3
:102ED0002368FF225A62042384F821300125F0E799
:102EE0002046FFF76BFF0028E5D02368FF225A62D7
:102EF000042384F82130002384F820300125E0E702
:102F00000125DEE7000000002DE9784B044601684A
:102F100083680269134342691343C2691343426ED3
:102F200013430868A54A024013430B6022685368A4
:102F300023F44053E1680B435360A2692168A04B1E
:102F4000994201D0236A1A438B6823F06E4323F41D
:102F5000306313438B602268D36A23F00F03616AE6
:102F60000B43D3622368974A934219D0944A934201
:102F70002AD01025924A934243D0E369B3F5004F1B
:102F800000F0FB82013D072D00F24085DFE815F0DF
:102F9000300481043E05BB043E053E053E05F904B0
:102FA0004FF0B042D2F8882002F00302032A09D879
:102FB000DFE802F0020423060125DBE70425D9E758
:102FC0000825D7E71025D5E74FF0B042D2F8882082
:102FD00002F44062B2F5806F0BD007D9B2F5006FF2
:102FE0000DD0B2F5406F06D10825C3E71AB9002508
:102FF000C0E70425BEE71025BCE70225BAE7022595
:10300000B8E7082D00F2E580DFE805F005E357E3B7
:1030100082E3E3E3BA00FFF725FB636AD3B1012B38
:1030200037D0022B37D0032B37D0042B37D0052BCA
:1030300037D0062B37D0072B37D0082B37D0092BAA
:1030400037D00A2B37D00B2B01D0012303E04FF4EC
:10305000807300E00123B0FBF3F00026002800F0AD
:10306000F983626802EB42039842C0F0D284B0EB6D
:10307000023F00F2D084082D00F27C82DFE815F0D8
:10308000F9007A0257017A029F017A027A027A02E3
:103090002A020223DFE70423DDE70623DBE7082318
:1030A000D9E70A23D7E70C23D5E71023D3E720235A
:1030B000D1E74023CFE78023CDE7636A002B00F000
:1030C0008B80012B00F08B80022B00F08B80032B78
:1030D00000F08B80042B00F08B80052B00F08B80A0
:1030E000062B00F08B80072B00F08B80082B00F064
:1030F0008B80092B00F08B800A2B00F08B800B2B30
:1031000002D031480026A9E74FF224400026A5E767
:10311000FFF732FA636AD3B1012B1DD0022B1DD009
:10312000032B1DD0042B1DD0052B1DD0062B1DD02D
:10313000072B1DD0082B1DD0092B1DD00A2B1DD00D
:103140000B2B01D0012303E04FF4807300E0012337
:10315000B0FBF3F0002681E70223F9E70423F7E749
:103160000623F5E70823F3E70A23F1E70C23EFE74B
:103170001023EDE72023EBE74023E9E78023E7E78F
:10318000636A002B49D0012B4BD0022B4DD0032B6F
:103190004FD0042B51D0052B53D0062B55D0072BE5
:1031A00057D0082B59D0092B5BD00A2B5DD00B2BA5
:1031B0000CD04FF40040002650E700BFF369FFCF6A
:1031C00000800040003801400024F40080200026E8
:1031D00044E70020012641E7A94800263EE7A94828
:1031E00000263BE7A848002638E7A848002635E730
:1031F000A748002632E7A74800262FE7A648002662
:103200002CE7A648002629E7A548002626E7A5487A
:10321000002623E7A448002620E74FF400400026BC
:103220001CE74FF48040002618E74FF400500026BA
:1032300014E741F25550002610E74FF48050002665
:103240000CE740F6CC40002608E740F6AA2000260E
:1032500004E74FF40060002600E74FF4806000268A
:10326000FCE64FF400700026F8E64FF4807000266C
:10327000F4E6FFF7F7F9636AE3B1012B39D0022BCB
:103280003AD0032B3BD0042B3CD0052B3DD0062B52
:103290003ED0072B3FD0082B40D0092B41D00A2B22
:1032A00042D00B2B02D00122002305E04FF48072A4
:1032B000002301E0012200230021FDF7A3F84FEADB
:1032C000012949EA10694FEA002862685008002382
:1032D00018EB000B49F1000C58466146FDF792F8D7
:1032E000A0F54072714B9A4200F297832368D86030
:1032F000B0E202220023DFE704220023DCE70622FB
:103300000023D9E708220023D6E70A220023D3E7C7
:103310000C220023D0E710220023CDE72022002337
:10332000CAE740220023C7E780220023C4E7636A7C
:10333000DBB1012B23D0022B24D0032B25D0042B6F
:1033400027D0052B28D0062B29D0072B2BD0082BD4
:103350002CD0092B2DD00A2B2ED00B2B02D0544869
:10336000002104E04648002101E0514800215508B1
:103370000023401941F10001FDF744F8B0E74D4842
:103380000021F4E74C480021F1E739A1D1E900011F
:10339000EDE74A480021EAE749480021E7E736A17E
:1033A000D1E90001E3E747480021E0E74648002172
:1033B000DDE746480021DAE745480021D7E7FFF777
:1033C000DBF8636AE3B1012B31D0022B32D0032B3F
:1033D00033D0042B34D0052B35D0062B36D0072B19
:1033E00037D0082B38D0092B39D00A2B3AD00B2BE9
:1033F00002D00122002305E04FF48072002301E097
:10340000012200230021FCF7FDFF4FEA012949EAD0
:1034100010694FEA002862685008002318EB000B7F
:1034200049F1000C58466146FCF7ECFF58E70222D0
:103430000023E7E704220023E4E706220023E1E774
:1034400008220023DEE70A220023DBE70C22002308
:10345000D8E710220023D5E720220023D2E740221C
:103460000023CFE780220023CCE700BFAFF300802A
:1034700000AAB02800000000005558140000000009
:103480000024F40000127A0000093D00AAB02800D0
:1034900080841E00006A18005558140040420F0036
:1034A00020A1070090D0030048E80100FFFC0F00B6
:1034B000000024F40000127A0000093D0080841E00
:1034C00000006A180040420F0020A1070090D003BE
:1034D0000048E801636AEBB1012B26D0022B28D00B
:1034E000032B2AD0042B2BD0052B2DD0062B2ED02E
:1034F000072B2FD0082B31D0092B33D00A2B35D0F6
:103500000B2B03D04FF40000002106E04FF40040E5
:10351000002102E04FF4000000215508002340196B
:1035200041F10001FCF76EFFDAE64FF48000002164
:10353000F3E74FF400100021EFE79E480021ECE78D
:103540004FF480100021E8E79B480021E5E79B4805
:103550000021E2E74FF400200021DEE74FF4802055
:103560000021DAE74FF400300021D6E74FF4803035
:103570000021D2E701260020B2E6013D072D00F22E
:103580001681DFE815F00800560014018F001401C1
:1035900014011401CE00FFF777F8636AD3B1012B51
:1035A00033D0022B33D0032B33D0042B33D0052B55
:1035B00033D0062B33D0072B33D0082B33D0092B35
:1035C00033D00A2B33D00B2B01D0012303E04FF46F
:1035D000807300E00123B0FBF3F06268530803EB53
:1035E0004003B3FBF2F39BB20026A3F110014FF6A8
:1035F000EF72914200F213829AB222F00F02C3F3EB
:10360000420313432268D36024E10223E3E7042347
:10361000E1E70623DFE70823DDE70A23DBE70C23E6
:10362000D9E71023D7E72023D5E74023D3E780232A
:10363000D1E7636ACBB1012B20D0022B20D0032B22
:1036400020D0042B20D0052B20D0062B20D0072BF8
:1036500020D0082B20D0092B20D00A2B20D00B2BD8
:1036600001D0574B02E0574B00E0554B626803EB2B
:103670005203B3FBF2F39BB20026B6E7524BF5E7D9
:10368000524BF3E7524BF1E7524BEFE7524BEDE76A
:10369000524BEBE7524BE9E7524BE7E7524BE5E77A
:1036A000524BE3E7FEF768FF636AD3B1012B24D0E6
:1036B000022B24D0032B24D0042B24D0052B24D080
:1036C000062B24D0072B24D0082B24D0092B24D060
:1036D0000A2B24D00B2B01D0012303E04FF480737D
:1036E00000E00123B0FBF3F06268530803EB4003F2
:1036F000B3FBF2F39BB2002677E70223F2E7042341
:10370000F0E70623EEE70823ECE70A23EAE70C23B9
:10371000E8E71023E6E72023E4E74023E2E78023FD
:10372000E0E7636ADBB1012B23D0022B24D0032B0B
:1037300025D0042B26D0052B27D0062B28D0072BED
:1037400029D0082B2AD0092B2BD00A2B2CD00B2BBD
:1037500002D04FF4803304E04FF4807301E04FF463
:103760008033626803EB5203B3FBF2F39BB2002693
:103770003BE74FF40043F4E74FF48043F1E742F6B0
:10378000AA23EEE74FF40053EBE741F69813E8E77E
:1037900041F25453E5E74FF48053E2E74FF40063FE
:1037A000DFE74FF48063DCE74FF40073D9E70126CD
:1037B00000231AE70055150000CC0C0000AA0A00EF
:1037C0000048E80148E801000024F40000127A00F3
:1037D0005461510000093D0000D43000AAB0280017
:1037E00080841E0040420F0020A1070090D00300FB
:1037F000FEF74AFF636AD3B1012B36D0022B36D0D5
:10380000032B36D0042B36D0052B36D0062B36D0E2
:10381000072B36D0082B36D0092B36D00A2B36D0C2
:103820000B2B01D0012303E04FF4807300E0012350
:10383000B0FBF3F3626803EB5203B3FBF2F39BB20A
:103840000026A3F110014FF6EF72914200F2E980D9
:103850002268D3600123A4F86A30A4F868300023FA
:10386000E36623673046BDE8788B0223E0E7042354
:10387000DEE70623DCE70823DAE70A23D8E70C2390
:10388000D6E71023D4E72023D2E74023D0E78023D4
:10389000CEE7636AD3B1012B21D0022B21D0032BB9
:1038A00021D0042B21D0052B21D0062B21D0072B92
:1038B00021D0082B21D0092B21D00A2B21D00B2B72
:1038C00001D0594B03E04FF2244300E0564B6268AD
:1038D00003EB5203B3FBF2F39BB20026B1E7534B69
:1038E000F5E7534BF3E7534BF1E7534BEFE7534BFC
:1038F000EDE7534BEBE7534BE9E7534BE7E7534B0C
:10390000E5E7534BE3E7FEF737FE636AD3B1012BDC
:1039100023D0022B23D0032B23D0042B23D0052B21
:1039200023D0062B23D0072B23D0082B23D0092B01
:1039300023D00A2B23D00B2B01D0012303E04FF41B
:10394000807300E00123B0FBF3F3626803EB5203E2
:10395000B3FBF2F39BB2002673E70223F3E70423E1
:10396000F1E70623EFE70823EDE70A23EBE70C2353
:10397000E9E71023E7E72023E5E74023E3E7802397
:10398000E1E7636AD3B1012B22D0022B23D0032BB2
:1039900024D0042B25D0052B26D0062B27D0072B8F
:1039A00028D0082B29D0092B2AD00A2B2BD00B2B5F
:1039B00002D04FF4004303E0802301E04FF40043C2
:1039C000626803EB5203B3FBF2F39BB2002638E7C5
:1039D0004FF48043F4E74FF40053F1E741F25553BD
:1039E000EEE74FF48053EBE740F6CC43E8E740F6D0
:1039F000AA23E5E74FF40063E2E74FF48063DFE7D3
:103A00004FF40073DCE74FF48073D9E701260023FD
:103A100017E701261EE701261CE701261AE7012603
:103A200018E7012616E700BF0024F40000127A0010
:103A300000093D00AAB0280080841E00006A18001A
:103A40005558140040420F0020A1070090D00300F9
:103A500048E80100836A13F0010F06D0026853683A
:103A600023F40033C16A0B435360836A13F0020FDF
:103A700006D00268536823F48033016B0B43536014
:103A8000836A13F0040F06D00268536823F480237E
:103A9000416B0B435360836A13F0080F06D0026832
:103AA000536823F40043816B0B435360836A13F024
:103AB000100F06D00268936823F48053C16B0B4348
:103AC0009360836A13F0200F06D00268936823F492
:103AD0000053016C0B439360836A13F0400F0AD0CC
:103AE0000268536823F48013416C0B435360436CAA
:103AF000B3F5801F0BD0836A13F0800F06D00268E5
:103B0000536823F40023C16C0B4353607047026871
:103B1000536823F4C003816C0B435360EBE72DE93A
:103B2000F04104460F4616469846069D2368DB6919
:103B300037EA03030CBF01230023B34241D1B5F19F
:103B4000FF3FF3D0FFF72EF9A0EB0800854223D307
:103B500015B323681A6812F0040FE7D0DA6912F47B
:103B6000006FE3D04FF400621A622268136823F4F6
:103B7000D07313602268936823F0010393602023BD
:103B8000C4F88030C4F88430C4F88830002384F846
:103B90007C300320BDE8F0812268136823F4D073E1
:103BA00013602268936823F0010393602023C4F814
:103BB0008030C4F88430002384F87C300320BDE8D2
:103BC000F0810020BDE8F08130B583B004460023C9
:103BD000C0F88830FFF7E6F8054623681B6813F045
:103BE000080F0ED123681B6813F0040F17D1202390
:103BF000C4F88030C4F88430002084F87C0003B01E
:103C000030BD6FF07E430093034600224FF4001155
:103C10002046FFF784FF0028E4D00320EFE76FF091
:103C20007E4300932B4600224FF480012046FFF78D
:103C300076FF0028DBD00320E1E778B310B5044617
:103C4000D0F880300BB32423C4F880302268136886
:103C500023F0010313602046FFF756F901281FD017
:103C6000A36ABBB92268536823F490435360226867
:103C7000936823F02A0393602268136843F00103DA
:103C800013602046FFF7A0FF10BD80F87C30FDF7E1
:103C900041FDD8E72046FFF7DDFEE3E7012070474E
:103CA00010BD000010B485B00246194B93E8030024
:103CB00004AC04E90300083393E803008DE8030033
:103CC000536EFBB111688B68C3F34263886804A923
:103CD00001EB507010F8081CC90010F8100C91FB93
:103CE000F0F1A2F86A1004A90B4413F8081CC900EB
:103CF00013F8103C91FBF3F3A2F8683005B05DF8BF
:103D0000044B70470123A2F86A30A2F86830F5E747
:103D10000854000890F87C30012B18D0012380F85B
:103D20007C302423C0F8803003681A68196821F0B9
:103D30000101196022F000520023436601680A6005
:103D40002022C0F8802080F87C301846704702207E
:103D5000704738B590F87C30012B01D1022038BD76
:103D60000446012380F87C302423C0F880300368A7
:103D70001D681A6822F001021A600268936823F035
:103D8000604319439160FFF78DFF23681D60202376
:103D9000C4F88030002084F87C0038BD38B590F835
:103DA0007C30012B01D1022038BD0446012380F86C
:103DB0007C302423C0F8803003681D681A6822F024
:103DC00001021A600268936823F0606319439160EE
:103DD000FFF768FF23681D602023C4F880300020AF
:103DE00084F87C0038BD00285CD0F0B587B004466C
:103DF00090F829323BB1032384F82932206800F07F
:103E000074F8002316E080F82832FDF7B7FCF2E7DB
:103E100004EB4312012182F8291082F82830D3865E
:103E2000002182F82B109163D1639A1C5201A1509A
:103E30000133DBB260688342EAD3002312E004EB73
:103E40004311002281F8292181F8283181F82B21A2
:103E5000C1F83821C1F83C2103F10A01490162503F
:103E60000133DBB29842EAD8254655F8107B6E46FE
:103E70000FCD0FC62B683360231D0ECB384600F0E4
:103E80003EF8002384F82430012384F82932E369C2
:103E9000012B02D0002007B0F0BD204600F004F84E
:103EA0000020F8E701207047034602680121C0F8AE
:103EB0006812002083F86002B2F854309BB20B43C2
:103EC000A2F85430B2F854309BB243F00203A2F887
:103ED00054307047B0F840309BB243F43F4343F056
:103EE0008003A0F8403000207047B0F8403023F441
:103EF0007E535B045B0CA0F840300020704784B018
:103F000038B505AC84E80E000123A0F84030002449
:103F1000A0F84040A0F84440A0F85040FFF7DAFF76
:103F20002046BDE8384004B070470000164B002121
:103F30009960D3F8882042F47002C3F888204FF0CB
:103F4000B0431A6842F001021A604FF4E0229A600E
:103F50001868A2F1A262A2F2051202401A60D3F818
:103F6000942022F00502C3F89420D3F8982022F080
:103F70000102C3F89820054ADA601A611A6822F42F
:103F800080221A609961704700ED00E00010042261
:103F90004FF0B0421368C3F30313294951F82310BB
:103FA000936803F00C030C2B46D8DFE803F00745B9
:103FB0004545174545451B4545451F00214B1960A3
:103FC0004FF0B0439B68C3F303131F4A52F823100A
:103FD0001C4A1368B3FBF1F3136070471B4A194B7B
:103FE0001A60EDE71A4A174B1A60E9E74FF0B04341
:103FF000DA6802F00302DB68C3F302130133022A1A
:1040000012D0032A14D0B1FBF3F24FF0B041CB68C9
:10401000C3F3062303FB02F3CA68520F0132B3FB5A
:10402000F2F3084A1360CBE7084AB2FBF3F2ECE77D
:10403000074AB2FBF3F2E8E7024B1960C0E700BFA2
:10404000C055000818000020605500080024F40046
:104050000048E80100B583B009E001A9084800F074
:1040600034F9084B1B690199186900F016F90448E6
:1040700000F0FBF80028F0D003B05DF804FB00BFAF
:10408000E40100200000032008B5FDF78BFA08BD0D
:1040900008B50E4A0E4B136003F12001516003F185
:1040A0003001916003F13C01116203F14401D160E0
:1040B00003F14C01116103F16801516103F16C01DD
:1040C00091617833D361FDF785FA08BD00000320C4
:1040D0003001032038B504460B4D284600F0C2F8E5
:1040E0000A4B5B68A2681A60E268DA6005F10802B0
:1040F0005A609D60FDF790FA2268054B1A6062686D
:10410000044B1A60002038BD2C0A03200000032055
:10411000E0010020DC01002008B5044B5B681B684F
:1041200001221A72FDF780FA002008BD000003206A
:1041300038B50446094D284600F094F8084BDB6872
:10414000A2681A605D60FDF777FA2268054B1A6075
:104150006268054B1A60002038BD00BF440A032086
:1041600000000320EC010020F001002008B5044B02
:10417000DB681B6810221A72FDF766FA002008BD82
:104180000000032038B504460B4D284600F06AF8BD
:104190000A4800F067F80A4B1B69A2689A60E26857
:1041A000DA601D6122681A6062685A6022695A6189
:1041B00062699A6138BD00BFB4010320E4010020A8
:1041C0000000032008B50146034800F066F80348E4
:1041D000FDF746FA08BD00BFE40100205540000885
:1041E00010B5054C204600F03DF8044B5B691C609F
:1041F000FDF752FA10BD00BFBC01032000000320F0
:1042000000B585B06B4600F10C0221214FF66640E7
:1042100000F00AFF9DF80E0005B05DF804FB00B544
:1042200085B06B4600F10C020F214FF6684000F09C
:10423000FBFE9DF80E0005B05DF804FB074B00E0A7
:10424000083BDA79824202D005498B42F8D182429A
:1042500001D1184670470023FBE700BFF873FF1F2A
:104260000070FF1F006040607047EFF3108372B66C
:104270000268904203D0002083F310887047012029
:10428000FAE7EFF3108372B602680A6048600160D3
:104290000A68516083F310887047EFF3108372B699
:1042A000086042684A6041604A68116083F3108880
:1042B0007047EFF3108372B64268016811600268BC
:1042C0004168516083F31088704710B5EFF3108494
:1042D00072B603680B600068FFF7EBFF84F3108889
:1042E00010BD08B5FBF7A6FF08BD08B5FCF73CF804
:1042F00008BD7047704770477047704770477047F8
:1043000070477047704770477047704770477047F5
:1043100008B5FFF7EEFFFFF7EDFFFFF7ECFFFFF744
:10432000EBFFFFF7EAFFFFF7E9FFFFF7E8FFFFF713
:10433000E7FFFFF7E6FFFFF7E5FFFFF7E4FF00F019
:10434000FFFBFFF7E1FFFFF7E1FFFFF7DEFFFFF7FE
:10435000DEFF08BD08B5044B00221A7783F8202041
:10436000FFF7D6FF08BD00BF58010020034A137FA6
:1043700042F8230001331377704700BF5801002033
:1043800038B505464378FF2B18D1B0F8033003F455
:104390007F43B3F5406F01D0002210E00024224695
:1043A0000C4B1B7F9C420AD20A4B53F82430284600
:1043B0009847024618B90134E4B2F1E700221AB175
:1043C000022A05D0012038BD2846FDF787F838BD00
:1043D000002038BD5801002010B588B000248DF8A9
:1043E00007401822214602A8FFF77FFF3F23ADF8C0
:1043F00008308123ADF80A300DF10703069301233D
:104400000793214602A800F0FFFCA04203DB9DF8C1
:10441000070008B010BDFF20FBE72DE9F04FC9B041
:104420009DF84C619DF8545106F1080A02AC04EB6A
:104430000A0B7719093704EB07080DF107094FF04C
:10444000000E8DF807E08DF80800ADF80910ADF802
:104450000B208DF80D309DF848318DF80E308DF819
:104460000F603246549904A8FFF73BFF04F80A5046
:1044700009362A4656990BF10100FFF732FF354401
:10448000BDF85C31E353BDF86031A8F80230043563
:104490001822002142A8FFF728FF3F23ADF808317A
:1044A0008323ADF80A3144944595CDF81891012342
:1044B0004793002142A800F0A7FC002804DB9DF8E8
:1044C000070049B0BDE8F08FFF20FAE770B5C8B02B
:1044D0000DF1070500248DF8074002AE8DF80800A5
:1044E0001822214642A8FFF700FF3F23ADF808310C
:1044F0008523ADF80A3144960123459346954793A9
:10450000214642A800F080FCA04203DB9DF8070092
:1045100048B070BDFF20FBE770B5C8B00DF10706CD
:1045200000258DF8075002AC8DF808008DF80910B1
:104530008DF80A208DF80B309DF830318DF80C3055
:104540009DF834318DF80D309DF838318DF80E30EE
:104550004F9BCDF80F309DF840318DF81330182265
:10456000294642A8FFF7C1FE3F23ADF80831862354
:10457000ADF80A3144940C234593469601234793A2
:10458000294642A800F040FCA84203DB9DF8070042
:1045900048B070BDFF20FBE72DE9F041C8B0804670
:1045A0000F4615461E46072200216846FFF79DFE6E
:1045B00002AC8DF808808DF809708DF80A50182229
:1045C000002142A8FFF791FE3F23ADF808318A236E
:1045D000ADF80A31449403234593CDF818D107234D
:1045E0004793002142A800F00FFC00280EDB9DF845
:1045F000000060B9BDF801303380BDF803204E9B48
:104600001A80BDF805204F9B1A8000E0FF2048B0BB
:10461000BDE8F081F0B5C9B004460DF107060025EC
:104620008DF8075002AF8DF8080002460DF1090021
:10463000FFF757FE01341822294642A8FFF755FE1E
:104640003F23ADF808318E23ADF80A3144974594E5
:10465000469601234793294642A800F0D5FBA8427D
:1046600003DB9DF8070049B0F0BDFF20FBE710B564
:1046700088B000248DF807401822214602A8FFF7D1
:1046800034FE3F23ADF808309223ADF80A300DF127
:104690000703069301230793214602A800F0B4FB09
:1046A000A04203DB9DF8070008B010BDFF20FBE728
:1046B00010B588B000248DF807401822214602A8C2
:1046C000FFF713FE3F23ADF8083040F20113ADF8B9
:1046D0000A300DF10703069301230793214602A830
:1046E00000F092FBA04203DB9DF8070008B010BD6C
:1046F000FF20FBE72DE9F041C8B004468846174685
:104700001E46012815D0022811D0012502AB1D44F8
:104710000322002101A8FFF7E8FD8DF80840012CD5
:1047200009D0022C33D0472048B0BDE8F0811125D4
:10473000ECE70325EAE70224224641460DF1090091
:10474000FFF7CFFD2F706E7003341822002142A8AE
:10475000FFF7CBFD3F23ADF808314FF48173ADF87F
:104760000A3102AB4493459401AB4693032347932C
:10477000002142A800F048FB00280ADB9DF8040055
:104780000028D1D1BDF805204E9B1A80CCE710241B
:10479000D2E7FF20C8E72DE9F041C8B006460D4634
:1047A00090461F46012917D0022913D0032402ABDB
:1047B0001C440322002101A8FFF797FDADF8086013
:1047C0008DF80A50012D09D0022D41D0472048B064
:1047D000BDE8F0811324EAE70524E8E702252A462C
:1047E00041460DF10B00FFF77CFD27809DF8383125
:1047F000A3709DF83C31E3709DF8403123719DF822
:10480000443163719DF84831A3710A3518220021A3
:1048100042A8FFF76AFD3F23ADF808314FF48273D9
:10482000ADF80A3102AB4493459501AB469303239F
:104830004793002142A800F0E7FA00280ADB9DF820
:1048400004000028C3D1BDF80520539B1A80BEE7A1
:104850001025C4E7FF20BAE7F0B5C9B01C460DF13A
:10486000070700268DF8076002ADADF80800ADF827
:104870000A108DF80C208DF80D301A464E990DF166
:104880000E00FFF72EFD06341822314642A8FFF72E
:104890002CFD3F23ADF808314FF48373ADF80A3196
:1048A00044954594469701234793314642A800F02A
:1048B000ABFAB04203DB9DF8070049B0F0BDFF2022
:1048C000FBE7F0B5C9B00C4611460DF1070700250E
:1048D0008DF8075002AE8DF808008DF80940224689
:1048E0000DF10A00FFF7FDFC02341822294642A808
:1048F000FFF7FBFC3F23ADF808310C23ADF80A317C
:1049000044964594469701234793294642A800F0D0
:104910007BFAA84203DB9DF8070049B0F0BDFF20F9
:10492000FBE770B5C8B00DF1070600248DF807400D
:1049300002AD8DF808008DF809101822214642A812
:10494000FFF7D3FC3F23ADF808310F23ADF80A3150
:10495000449502234593469601234793214642A856
:1049600000F052FAA04203DB9DF8070048B070BD8A
:10497000FF20FBE770B5C8B00DF1070500248DF8E6
:10498000074002AEADF808001822214642A8FFF702
:10499000ACFC3F23ADF808311823ADF80A3144963A
:1049A00002234593469501234793214642A800F0F0
:1049B0002BFAA04203DB9DF8070048B070BDFF2032
:1049C000FBE710B588B000248DF807401822214677
:1049D00002A8FFF78AFC0323ADF80830ADF80A30CF
:1049E0000DF10703069301230793214602A800F067
:1049F0000BFAA04203DB9DF8070008B010BDFF20B2
:104A0000FBE7F0B5C9B007460E4615460522002162
:104A10006846FFF76AFC02ACADF808701822002166
:104A200042A8FFF762FC0823ADF808313023ADF847
:104A30000A31449402234593CDF818D105234793B6
:104A4000002142A800F0E0F9002809DB9DF80000F1
:104A500038B99DF8033033709DF804302B7000E0B6
:104A6000FF2049B0F0BD70B5C8B00DF107060025B4
:104A70008DF8075002AC8DF808008DF809108DF8FC
:104A80000A201822294642A8FFF72FFC0823ADF878
:104A900008313123ADF80A314494032345934696F7
:104AA00001234793294642A800F0AEF9A84203DB50
:104AB0009DF8070048B070BDFF20FBE74378FF2B4F
:104AC00038D1B0F8032040F601439A4234D110B5F2
:104AD00084B0B0F80720194B9B8802339A4207D064
:104AE000164B5B8801339A4216D0002004B010BDEB
:104AF000437B13F0010F07D004A8002300F8103DFA
:104B0000FCF74CFD0120F1E7012404A800F8104D4A
:104B1000FCF744FD2046E9E703238DF80030B0F8A8
:104B20000B308DF808300D3001906846FCF736FDEB
:104B30000020DBE700207047002070477C01002048
:104B40002DE9F04F8BB06048FFF710FC8F238DF8F4
:104B50001830E5238DF81930B3238DF81A30D5239A
:104B60008DF81B302E238DF81C307F238DF81D30DF
:104B70004A238DF81E3098238DF81F302A238DF894
:104B8000203048238DF821307A238DF82230CC2331
:104B90008DF8233040238DF82430FE278DF82570C2
:104BA00000248DF826408DF82740484B00930823B9
:104BB000012206A90220FFF79DFD4FF0190B8DF889
:104BC00018B0ED268DF819604FF0820A8DF81AA002
:104BD0006FF051038DF81B308DF81C604FF02103EE
:104BE0008DF81D304FF04C038DF81E306FF06203CE
:104BF0008DF81F304FF041088DF820804FF04503AD
:104C00008DF821304FF022038DF822304FF08E09BD
:104C10008DF823908DF824808DF825708DF826402E
:104C20008DF82740294B33F8020B05930125049595
:104C30000A2303930295019406230093022306AAF4
:104C40001946FFF7A8FD8DF818B08DF819608DF89A
:104C50001AA06FF051038DF81B308DF81C604FF0D7
:104C600021038DF81D304FF04C038DF81E306FF08E
:104C700062038DF81F308DF820804FF045038DF8CA
:104C800021304FF022038DF822308DF823904223FB
:104C90008DF824308DF825708DF826408DF827404A
:104CA0000A4B33F8040B059304950A2303930295EA
:104CB000019410230093022306AA1946FFF76BFD07
:104CC0000BB0BDE8F08F00BFBD4A00087C0100209A
:104CD00008B520B9054B1B6833B1984708BD034B95
:104CE0001B680BB10120984708BD00BFFC010020E4
:104CF00030B585B005460B48FFF7B4FA0A4C20469C
:104D000040F8045BFFF7AEFA01232373074B1B68DF
:104D10002BB1029504A8064A40F8102D984705B01B
:104D200030BD00BFF40100208401002000020020FB
:104D3000AD4E000810B51446084B1B68A3F80900D7
:104D4000D9720A46214603F10C00FBF773FA044BB3
:104D50001B6900210846984710BD00BF8401002050
:104D60000002002010B50C464A68054B1A60054B3E
:104D7000D861184600F0B6F82068FFF7B9FF10BDFB
:104D8000FC0100200002002000B585B01B48FFF7A1
:104D90006CFA10B91A4B1B7B4BB91848FFF765FA30
:104DA00010B9174B1B7B23BB05B05DF804FB03A9AF
:104DB0001248FFF78AFA134BDB698BB1039A029210
:104DC00004A8012200F80C2D98479DF804200C4BF4
:104DD0001A730B4B1B7B3BB10398FFF7F3F9DCE72E
:104DE0000122074B1A73F4E703990448FFF749FAC5
:104DF000D3E70248FCF7C2FBD6E700BF88010020DA
:104E00008401002000020020F0B583B00746002096
:104E1000FFF75EFFB7F90250C5F309053B8845EA85
:104E20008325ADB2BA68397B2846FFF783FF002699
:104E3000002E33D148F2E800FCF7ABFB05E0B4F8F4
:104E40000D309D4216D0237B33BB1748FFF70DFA78
:104E50000028EDD101A91448FFF737FA019C637AC5
:104E60000F2BECD0A3899D4208D0E37A002BECD025
:104E70000126EAE73B69E27A1A70E4E7A27A033A8C
:104E8000D2B27B699A42A8BF1A467A6104F10E0138
:104E90003869FBF7CFF9E8E70126D6E70120FFF7ED
:104EA00017FF002003B0F0BDF401002010B5437AD5
:104EB0000E3BDBB2012B08D9084C01462046FFF718
:104EC000ECF92046FCF75AFB10BD01460448FFF7F9
:104ED000E4F90020FCF758FB10BD00BF880100205A
:104EE000F4010020024B0360024B0361704700BFD6
:104EF000D54000081941000808B538B9084B1B68AF
:104F000003B198470022074B1A7008BD0122054BD8
:104F10001A70034B1B680BB11046984708BD00BFC1
:104F2000200200209401002030B585B005460B4CCE
:104F3000606004F10800FFF795F90120FFF7DCFF3E
:104F400001232374064B1B6833B10395054A019274
:104F5000054A029201A8984705B030BD940100208F
:104F600024020020815000086D4F000810B5044C49
:104F700001462046FFF791F92046FBF75AFD10BD88
:104F80009C01002010B50C464A68054B1A60054B81
:104F9000D861184600F07AF82068FFF7C5FF10BD09
:104FA000200200202402002000B585B01B48FFF736
:104FB0005CF910B91A4B1B7C4BB91848FFF755F92F
:104FC00010B9174B1B7C23BB05B05DF804FB03A98C
:104FD0001248FFF77AF9134BDB698BB1039A0292FF
:104FE00004A8012200F80C2D98479DF804200C4BD2
:104FF0001A740B4B1B7C3BB10398FFF7E3F8DCE71B
:105000000122074B1A74F4E703990448FFF739F9B2
:10501000D3E70248FBF70DFDD6E700BF9C01002057
:1050200094010020240200202DE9F04180460D4625
:1050300017461E460020FFF75FFF0F4C6068A0F880
:105040000980C5722A4639460C30FBF7F3F80B4B42
:105050001B6900210846984748F2E800FBF7F4FC7A
:1050600061688A78033206F10800FBF7E3F8012053
:10507000FFF742FFBDE8F0819401002024020020E8
:1050800008B50020FBF7DBFC08BD0000024B036005
:10509000024B0361704700BF314100086D410008B9
:1050A0000023024A1360024A13607047480200203E
:1050B00044020020EFF3108372B641B1012903D1FD
:1050C00006490A681043086083F310887047034953
:1050D0000A6822EA00000860F6E700BF44020020E8
:1050E000030C1B0493B90004102310F07F4F01D16F
:1050F0000833000210F0704F01D104330001000F9B
:10510000034A105C1844C0F11F0070470023ECE70D
:105110000056000838B51546EFF3108472B6FFF755
:10512000DFFF034B43F8205084F3108838BD00BFE5
:105130005802002010B4EFF3108472B6074B1A68BF
:1051400002431A60064A52F83130034342F83130C4
:1051500084F310885DF8044B704700BFE80200201C
:10516000D8020020EFF3108172B6044A136823EAD4
:105170000003136081F31088704700BF20000020F7
:10518000EFF3108172B6034A13680343136081F38F
:105190001088704720000020EFF3108172B6034A98
:1051A00013680343136081F3108870475002002096
:1051B0007047704770B5394B1C68204018603EE05E
:1051C0000133374850F8330008401040F8D0344AD3
:1051D00002EBC3025268104205D1314A02EBC3020E
:1051E0004FF0FF3151602E4D05EBC3056E68304026
:1051F000FFF776FF2B4B1860012202FA00F026EA37
:1052000000066E60EFF3108572B61B689A40D243B9
:1052100025490B6813400B60022306E0013B204840
:1052200050F83310114040F83310002BF6D185F3BD
:1052300010881C4B1A681D4B53F8223098471C4BA2
:105240001968194B1B680B40144A1268134207D0A7
:10525000184B1868184B1B68184201D10023B0E79F
:10526000FFF7A6FFEFF3108572B60F4B1B68104ACD
:1052700012681340094A1268134205D10D4B1A688F
:105280000D4B1B681A4206D085F31088FFF791FF7B
:10529000024B1C6070BDFBF7C5FBF5E71C0000204E
:1052A000D80200204C020020E80200205802002012
:1052B000200000205002002054020020F8B50F4BBF
:1052C0001B6801269E400E4B1F68186003E02146B4
:1052D0003046FBF7A8FB0B4B1D68094B1C682542A9
:1052E000F5D03046FFF7FCFE044B186025EA0404B5
:1052F000044B1C60024B1F60F8BD00BF4C02002035
:105300005402002050020020D458C4500433C41862
:105310008C42F9D37047036004308842FBD3704756
:105320000C4885460C480D490D4A0023FFF7EFFF56
:105330000C480D490023FFF7F0FF0C480C490023EF
:10534000FFF7EBFFFEF7F2FDFAF74CFFFBF70CFB64
:10535000FEE70000000003200400002024000020DD
:1053600020560008A801002018060020C4010320D0
:105370004C0A0320FEE70000F8B500BFF8BC08BCEB
:105380009E467047F8B500BFF8BC08BC9E46704703
:105390000000000000000000000000001854000899
:1053A000280A0320240A032022040400000000002D
:1053B00000000000000000000000000000000000ED
:1053C00044000800400508013A799C00F4010000FF
:1053D000FFFFFFFF48010100000000001200000075
:1053E000240000003600000040000000060000001D
:1053F0000C00000010000000000000000100000090
:105400000200000003000000010101030701000089
:105410000804020408010101000000480100000026
:1054200000000048010000000000004801000000EA
:1054300000000048010000000000004801000000DA
:1054400000000048010000000000004801000000CA
:1054500000000048010000000000004801000000BA
:1054600000000048010000000000004801000000AA
:10547000000000480100000000000048010000009A
:10548000000000480100000000000048010000008A
:10549000000000480100000000000048010000007A
:1054A000000000480100000000000048010000006A
:1054B000000000480100000000000048010000005A
:1054C000000000480100000000000048010000004A
:1054D000000000480100000000000048010000003A
:1054E000000000480100000000000048010000002A
:1054F000000000480100000000000048010000001A
:105500000000004801000000000000480100000009
:1055100000000048010000000000004801000000F9
:105520000000004801000000FEDCBA098765432145
:10553000FEDCBA0987654321123456789ABCDEF046
:10554000123456789ABCDEF0503250535256310025
:105550000000000000000000095032505352563144
:105560000100000003000000050000000100000031
:1055700001000000060000000A00000020000000FA
:1055800002000000040000000800000010000000FD
:105590004000000080000000000100000002000048
:1055A00000000000000000000000000000000000FB
:1055B00001000000020000000300000004000000E1
:1055C000A0860100400D0300801A060000350C0083
:1055D00040420F0080841E0000093D0000127A0046
:1055E0000024F40000366E010048E801006CDC0283
:1055F00000000000000000000000000000000000AB
:10560000040302020101010100000000000000008B
:0856100024AEFF7F0100000041
:04561800AD010008D8
:04561C0085010008FC
:105620000DFF0183000000000000000000000100E9
:105630001000000000093D00FFFFFFFFFFFFFFFF1C
:10564000000000000000000000000000000000005A
:10565000000000000000000000000000000000004A
:10566000000000000000000000000000000000003A
:10567000000000000000000000000000000000002A
:10568000000000000000000000000000000000001A
:10569000000000000000000000000000000000000A
:1056A00000000000000000000000000000000000FA
:1056B00000000000000000000000000000000000EA
:1056C00000000000000000000000000000000000DA
:0956D000000000000000000000D1
:1056D90000000000000000000000000000000000C1
:1056E90000000000000000000000000000000000B1
:1056F90000000000000000000000000000000000A1
:105709000000000000000000000000000000000090
:105719000000000000000000000000000000000080
:105729000000000000000000000000000000000070
:105739000000000000000000000000000000000060
:105749000000000000000000000000000000000050
:105759000000000000000000000000000000000040
:08576900000000000000000038
:105771000000000000000000000000000000000028
:105781000000000000000000000000000000000018
:105791000000000000000000000000000000000008
:0A57A10000000000000000000000FE
:1057AB0000000000000000000000000000000000EE
:0157BB0000ED
:04000005080053217B
:00000001FF
